{"abi":[{"type":"function","name":"blobExistsForKey","inputs":[{"name":"key","type":"bytes32","internalType":"bytes32"}],"outputs":[{"name":"","type":"bool","internalType":"bool"}],"stateMutability":"view"},{"type":"function","name":"deleteBlob","inputs":[{"name":"key","type":"bytes32","internalType":"bytes32"}],"outputs":[],"stateMutability":"nonpayable"},{"type":"function","name":"getBlob","inputs":[{"name":"key","type":"bytes32","internalType":"bytes32"}],"outputs":[{"name":"","type":"bytes","internalType":"bytes"}],"stateMutability":"view"},{"type":"function","name":"getBlobCount","inputs":[{"name":"owner","type":"address","internalType":"address"}],"outputs":[{"name":"","type":"uint256","internalType":"uint256"}],"stateMutability":"view"},{"type":"function","name":"getBlobOwner","inputs":[{"name":"key","type":"bytes32","internalType":"bytes32"}],"outputs":[{"name":"","type":"address","internalType":"address"}],"stateMutability":"view"},{"type":"function","name":"getBlobSize","inputs":[{"name":"key","type":"bytes32","internalType":"bytes32"}],"outputs":[{"name":"","type":"uint256","internalType":"uint256"}],"stateMutability":"view"},{"type":"function","name":"storeBlob","inputs":[{"name":"key","type":"bytes32","internalType":"bytes32"},{"name":"data","type":"bytes","internalType":"bytes"}],"outputs":[],"stateMutability":"nonpayable"},{"type":"event","name":"BlobDeleted","inputs":[{"name":"key","type":"bytes32","indexed":true,"internalType":"bytes32"},{"name":"sender","type":"address","indexed":true,"internalType":"address"}],"anonymous":false},{"type":"event","name":"BlobStored","inputs":[{"name":"key","type":"bytes32","indexed":true,"internalType":"bytes32"},{"name":"sender","type":"address","indexed":true,"internalType":"address"},{"name":"size","type":"uint256","indexed":false,"internalType":"uint256"}],"anonymous":false}],"bytecode":{"object":"0x608060405234801561001057600080fd5b50610957806100206000396000f3fe608060405234801561001057600080fd5b506004361061007d5760003560e01c80638b5b67a61161005b5780638b5b67a6146100e7578063c2b8cfe5146100fa578063cb47256d1461012d578063d564f32f1461014e57600080fd5b80631870730a1461008257806388a1ad7b146100b25780638a4d1ad4146100c7575b600080fd5b610095610090366004610680565b610161565b6040516001600160a01b0390911681526020015b60405180910390f35b6100c56100c0366004610680565b6101b4565b005b6100da6100d5366004610680565b6102ca565b6040516100a99190610699565b6100c56100f53660046106e7565b610399565b61011d610108366004610680565b60009081526002602052604090205460ff1690565b60405190151581526020016100a9565b61014061013b366004610680565b610570565b6040519081526020016100a9565b61014061015c366004610763565b6105be565b60008181526002602052604081205460ff166101985760405162461bcd60e51b815260040161018f9061078c565b60405180910390fd5b506000908152600160205260409020546001600160a01b031690565b60008181526002602052604090205460ff166101e25760405162461bcd60e51b815260040161018f9061078c565b6000818152600160205260409020546001600160a01b031633146102585760405162461bcd60e51b815260206004820152602760248201527f426c6f6253746f726167653a204f6e6c79206f776e65722063616e2064656c656044820152663a3290313637b160c91b606482015260840161018f565b600081815260208190526040812061026f9161062a565b600081815260016020908152604080832080546001600160a01b03191690556002909152808220805460ff1916905551339183917f10dfb28015f2bbcf6ee3523b49d522da1c5bb6c81c18860487a7a16444cd8c799190a350565b60008181526002602052604090205460609060ff166102fb5760405162461bcd60e51b815260040161018f9061078c565b60008281526020819052604090208054610314906107c1565b80601f0160208091040260200160405190810160405280929190818152602001828054610340906107c1565b801561038d5780601f106103625761010080835404028352916020019161038d565b820191906000526020600020905b81548152906001019060200180831161037057829003601f168201915b50505050509050919050565b806103f25760405162461bcd60e51b8152602060048201526024808201527f426c6f6253746f726167653a2043616e6e6f742073746f726520656d70747920604482015263313637b160e11b606482015260840161018f565b621000008111156104535760405162461bcd60e51b815260206004820152602560248201527f426c6f6253746f726167653a20426c6f6220746f6f206c6172676520286d617860448201526420314d422960d81b606482015260840161018f565b60008381526002602052604090205460ff16156104e5576000838152600160205260409020546001600160a01b031633146104e05760405162461bcd60e51b815260206004820152602760248201527f426c6f6253746f726167653a204f6e6c79206f776e65722063616e20757064616044820152663a3290313637b160c91b606482015260840161018f565b61051a565b600083815260016020818152604080842080546001600160a01b031916331790556002909152909120805460ff191690911790555b6000838152602081905260409020610533828483610860565b50604051818152339084907fc642b4924fd2009f8298c07f47dab8fcd2fd90ca361aa409232c6e81ab8d8d539060200160405180910390a3505050565b60008181526002602052604081205460ff1661059e5760405162461bcd60e51b815260040161018f9061078c565b600082815260208190526040902080546105b7906107c1565b9392505050565b60405162461bcd60e51b815260206004820152603660248201527f426c6f6253746f726167653a20557365206576656e747320746f20747261636b60448201527510313637b11031b7bab73a399037b33316b1b430b4b760511b6064820152600090819060840161018f565b508054610636906107c1565b6000825580601f10610646575050565b601f0160209004906000526020600020908101906106649190610667565b50565b5b8082111561067c5760008155600101610668565b5090565b60006020828403121561069257600080fd5b5035919050565b600060208083528351808285015260005b818110156106c6578581018301518582016040015282016106aa565b506000604082860101526040601f19601f8301168501019250505092915050565b6000806000604084860312156106fc57600080fd5b83359250602084013567ffffffffffffffff8082111561071b57600080fd5b818601915086601f83011261072f57600080fd5b81358181111561073e57600080fd5b87602082850101111561075057600080fd5b6020830194508093505050509250925092565b60006020828403121561077557600080fd5b81356001600160a01b03811681146105b757600080fd5b6020808252818101527f426c6f6253746f726167653a20426c6f6220646f6573206e6f74206578697374604082015260600190565b600181811c908216806107d557607f821691505b6020821081036107f557634e487b7160e01b600052602260045260246000fd5b50919050565b634e487b7160e01b600052604160045260246000fd5b601f82111561085b57600081815260208120601f850160051c810160208610156108385750805b601f850160051c820191505b8181101561085757828155600101610844565b5050505b505050565b67ffffffffffffffff831115610878576108786107fb565b61088c8361088683546107c1565b83610811565b6000601f8411600181146108c057600085156108a85750838201355b600019600387901b1c1916600186901b17835561091a565b600083815260209020601f19861690835b828110156108f157868501358255602094850194600190920191016108d1565b508682101561090e5760001960f88860031b161c19848701351681555b505060018560011b0183555b505050505056fea26469706673582212205f7b899c773915ed8ccaf01dd1bd1276781e76add159b79a34dd7320c276928564736f6c63430008130033","linkReferences":{}},"methodIdentifiers":{"blobExistsForKey(bytes32)":"c2b8cfe5","deleteBlob(bytes32)":"88a1ad7b","getBlob(bytes32)":"8a4d1ad4","getBlobCount(address)":"d564f32f","getBlobOwner(bytes32)":"1870730a","getBlobSize(bytes32)":"cb47256d","storeBlob(bytes32,bytes)":"8b5b67a6"},"id":19}